:100000000C945C020C9484020C9484020C94840280
:100010000C9484020C9484020C9484020C94840248
:100020000C9484020C9484020C9484020C94681244
:100030000C9484020C9484020C9484020C94840228
:100040000C941E120C9484020C9484020C9484026E
:100050000C9484020C9484020C9484020C94840208
:100060000C9484020C9484020101FF030101F70344
:10007000050038016801000017534400161378008A
:10008000161314001510200015201000540A03E167
:1000900081867F3E186D830F0F0E018386603318B3
:1000A0006DC3198F1803C38E6033186DE330CF18FA
:1000B00003C39E603630CDE360CF3006C79E7E3EE0
:1000C00030CDB360CF300CC6F6603330D9B660CFD8
:1000D00033CFCCF66061B0DB1E60CF30D86CE6C0A9
:1000E00061B0DB1E618F19986CC6C063B19B0E3383
:1000F0000F0FB078C6FF7E1F1B061E0F401E0000AC
:10010000001000000000070148201FE32000050147
:1001100008002062800005011D0040A280000757F2
:1001200049DCFF22AEE0045549508122A8E0045585
:10013000494CBD22A88004774D5CA1232EE000101D
:100140000000BD20000000100000A520000000708D
:100150000000BD40000000000000818000000000A1
:100160000000FF0000000000000000000000000090
:10017000000000000000FFFFFFFFFFFFFFFFFFFF89
:10018000FFFFFFFFFFFFFFFC05FFFFFFFFFFFFFF7C
:10019000BDFFFFFFFFFFFFFFBDFFFFFFFFFFFFFFF3
:1001A000BDFFFFFFFFFFFFFFBC350BA15FFFFFFFA0
:1001B000BDB36AAD3FFFFFFFBDB76AA17FFFFFFF81
:1001C000BDB76AAF7FFFFFFFBDB709217FFFFFFF0C
:1001D000FFFFFFFFFFFFFFFFFFFFFFFFFFFFFFFF2F
:1001E000FFFFFFFFFFFFFFFFFFFFFFFFFFFF446970
:1001F000676920446963652044656C7578650045CE
:1002000000680100006C00680005008930080238B1
:10021000024978681400000505040E1F0E04080545
:100220002060FC602000000000240027002A00005D
:10023000000000250028002B000A0A153A49676EC5
:100240006F7265006D560A0A504C45415345205463
:1002500055524E204F464620004C4F5720424154A5
:100260005445525921200003053F213F1208120A2C
:10027000100A0E1C0E0C1E0C141A14161F161E1338
:100280001E1E1B1E1E1F1E3F213F3A2F3A173D17F1
:100290003F213F181F02040A041F0E04040E1F0A08
:1002A0001F0A0E0E1F04110E2E252E2F2A2E262970
:1002B00029021F02081F08150E04040E150E15153D
:1002C0001B151B040604040C0400000000170003A7
:1002D00000031F0A1F16371A1904130A153A0003E0
:1002E00000000E11110E000A040A040E0400300072
:1002F0000404040010001804031F111F121F101D16
:10030000151711151F07041F17151D1F151D0101B6
:100310001F1F151F17151F000A00003200040A11C5
:100320000A0A0A110A040115020E11171E051E1FE2
:10033000150A0E110A1F110E1F15111F05010E11AE
:100340001D1F041F111F1108100F1F041B1F101069
:100350001F061F1E040F0E110E1F09060E112E1F61
:10036000051A121509011F011F101F0F180F1F0C6E
:100370001F1B041B031C03191513001F1103041872
:10038000111F000201022020200001020C121E1F7A
:10039000120C0C12120C121F0C1A14041E05242A23
:1003A0001E1F021C141D1020201D1F0814111F10D9
:1003B0001E041E1E021C0C120C3E0A040C123E1ED1
:1003C000040214160A020F120E101E0E100E1E0842
:1003D0001E120C1226281E322A26041E21001F007F
:1003E000211E040102013F213FF6E8DBCFC3B8AE76
:1003F000A49B928A827B746E68625C57524E494518
:10040000413E3A3734312E2C2927252321172B152D
:100410002010204C4F4144455200172B1620131436
:10042000000A4E6F2053442063617264206F720A89
:100430006E6F204C4F414445522E4845580A0A15CC
:100440003A45786974001D20466C617368696E676F
:100450000A20206C6F616465722E2E2E0A0A444FAA
:100460004E2754205455524E204F4646210000003E
:1004700000002300260029000404040404040404EA
:10048000020202020202030303030303010204083F
:1004900010204080010204081020010204081020EE
:1004A0000000000800020100000304070000000033
:1004B00000000000F41A0E1B11241FBECFEFD8E07D
:1004C000DEBFCDBF11E0A0E0B1E0E8EAF0E402C099
:1004D00005900D92AC33B107D9F724E0ACE3B1E05D
:1004E00001C01D92A830B207E1F712E0CBE5D2E0DF
:1004F00004C02197FE010E94601FCA35D107C9F7C9
:100500000E94A9120C9447200C94000090E0880FE0
:10051000991FE091B103F091B203E80FF91F259103
:1005200034913093C2032093C103F90185919491D2
:100530009091A603989F802D11248093C303F90105
:1005400065917491472F50E08417150629F020F02B
:10055000F90125913491832F989F802D1124809348
:10056000C4030895833081F028F4813099F08230FB
:10057000A9F008958730A9F08830C9F08430B1F42B
:10058000809180008F7D03C0809180008F77809361
:100590008000089584B58F7784BD089584B58F7DDC
:1005A000FBCF8091B0008F778093B0000895809149
:1005B000B0008F7DF9CF1F93CF93DF93282F30E0CA
:1005C000F901E056FB4F8491F901E457FB4FD491B8
:1005D000F901E858FB4FC491CC23A9F0162F8111E3
:1005E0000E94B202EC2FF0E0EE0FFF1FE15DFD4F25
:1005F000A591B4918FB7F894EC91111108C0D095E2
:10060000DE23DC938FBFDF91CF911F910895DE2B06
:10061000F8CFCF93C82FF89460E08091DA030E945E
:10062000DB028091DB0318161CF460E00E94DB0201
:10063000CEBD00000DB407FEFDCF8EB58091DB036B
:1006400018161CF461E00E94DB027894CF910895A3
:100650000F931F93CF938091D7038F5F8093D7031E
:100660000DE711E0C0E08C2F80640E94090380E850
:100670000E94090361E08091DA030E94DB0280910D
:10068000DB0318161CF460E00E94DB02F80184E52D
:1006900091919EBD00000DB407FEFDCF9EB5815027
:1006A000B9F78091DB0318161CF461E00E94DB02AD
:1006B000CF5F0C5A1F4FC630B1F680E4CF911F9127
:1006C0000F910C940903CF93DF9390E0FC01E45762
:1006D000FB4F249188589B4FFC0184918823C9F0DB
:1006E00090E0880F991FFC01EB5DFD4FA591B4913F
:1006F000FC01E15DFD4FC591D49161110DC09FB723
:10070000F8948C91209582238C93888128232883C8
:100710009FBFDF91CF910895623051F49FB7F89455
:100720003C91822F809583238C93E8812E2BEFCFF1
:100730008FB7F894EC912E2B2C938FBFEACFFF92BA
:100740000F931F93CF93DF93CDE7D3E0FF24FA9469
:1007500062E08A850E9463032A8530E0F901E05651
:10076000FB4F8491F901E457FB4F0491F901E858DC
:10077000FB4F14911123E1F081110E94B202E12F8D
:10078000F0E0EE0FFF1FE259FB4FA591B491EC9101
:1007900089890E2369F0811113C0219683E0C43842
:1007A000D807B1F6DF91CF911F910F91FF90089577
:1007B00089898F5F898B60E08A850E946303EDCF12
:1007C0008F3F11F4198AF7CFF98AF5CF1F93CF9392
:1007D000DF93182FEB0161E00E946303209739F447
:1007E00060E0812FDF91CF911F910C94DB02CF3F0E
:1007F000D10511F461E0F5CFE12FF0E0E056FB4FB9
:10080000E491E33031F140F4E130B1F0E230E1F075
:10081000C038D1057CF7E4CFE73029F1E83059F151
:10082000E430B1F780918000806280938000D093A3
:100830008B00C0938A0004C084B5806884BDC7BDA6
:10084000DF91CF911F91089584B5806284BDC8BDAA
:10085000F7CF80918000806880938000D0938900DA
:10086000C0938800EDCF8091B00080688093B00085
:10087000C093B300E5CF8091B00080628093B00058
:10088000C093B400DDCF8E50806480937C00809153
:100890007A00806480937A0080917A0086FDFCCF94
:1008A000809178009091790008958091A1038F71D3
:1008B00049F584E10E944304BC01990F880B990B10
:1008C0000E946E1D26EE3FE34EEC50E40E94A91DEF
:1008D0000E94011F9B017093980360939703672BFD
:1008E000B9F084E080939603E9E9F3E080E0419178
:1008F00051912417350718F48093960308958F5F5C
:100900008430A9F78091A1038F5F8093A10308959C
:100910008FEF80939603F6CF3FB7F89480917001E4
:1009200090917101A0917201B091730126B5A89BBD
:1009300005C02F3F19F00196A11DB11D3FBFBA2F71
:10094000A92F982F8827BC01CD01620F711D811D31
:10095000911D42E0660F771F881F991F4A95D1F7B6
:1009600008958F929F92AF92BF92CF92DF92EF92B3
:10097000FF924B015C010E948C046B017C010E9480
:100980008C046C197D098E099F09683E73408105AE
:100990009105A8F321E0821A9108A108B10888EE18
:1009A000C80E83E0D81EE11CF11C81149104A1043F
:1009B000B10429F7FF90EF90DF90CF90BF90AF90F8
:1009C0009F908F900895DC01ED91FC910190F08152
:1009D000E02D0994AF92BF92CF92DF92EF92FF92F7
:1009E0000F931F93CF93DF936C017B018B01040F57
:1009F000151FEB015E01AE18BF08C017D10759F0F3
:100A00006991D601ED91FC910190F081E02DC60134
:100A10000995892B79F7C501DF91CF911F910F912E
:100A2000FF90EF90DF90CF90BF90AF900895FC01C2
:100A3000178A158A14A213A2108E109274011092B4
:100A40007501109278011092B4000895CF93DF934E
:100A5000E091AB038E2F90E0880F991FE091A903DE
:100A6000F091AA03E80FF91F859194918F3F9807A1
:100A700029F41092A203DF91CF9108959093AE03D1
:100A80009927880F991FE091AC03F091AD03E80F0F
:100A9000F91FC591D49182EA93E00E941705D09383
:100AA000B003C093AF031092B5031092B40381E07A
:100AB0008093A30389E08093B8031092BB03109244
:100AC000BD031092BF038091AB038F5F8093AB0394
:100AD000D2CFCF93DF93EC010E9417058FEF91E007
:100AE0009E878D871B8A1A8A81E0898389E08E8B95
:100AF000198E1B8E1D8EDF91CF9108952F923F92FC
:100B00005F926F927F928F929F92AF92BF92CF929D
:100B1000DF92EF92FF920F931F93CF93DF93EC013D
:100B2000F901E4903196849164350CF015C10E2CD6
:100B3000000CFF08062F062E000C110BF701E00F2A
:100B4000F11F1E161F060CF007C140330CF004C144
:100B5000A82FC42E042E000CDD085601A80EB11CCF
:100B600087FDBA941A141B040CF0F6C02E5F3F4F99
:100B7000570197E0A90EB11CB7FE04C05701BEE0B3
:100B8000AB0EB11CB3E0B594A794BA95E1F747FF5B
:100B90000AC0A42FA80FAC9CC001AD9C900D1124DD
:100BA000281B390B40E08A2F0A2E000C990B840F6A
:100BB000911D47FD9A95C19714F0A0E3A41BF8A0DE
:100BC00067FD60E0E535F10514F0E4E5F0E09E2F07
:100BD000CC85C427C62E062E000CDD08F601E01BCE
:100BE000F10B8F014F01F7E08F229924E0E8F0E04C
:100BF00002C0F595E7958A94E2F77E2F17FF02C0B1
:100C0000095F1F4FF3E015950795FA95E1F7200F5F
:100C1000311F542F577081E001C0880F5A95EAF7B1
:100C2000459545954595F601B4E54B02E00DF11D5E
:100C30001124AF0143585E4FD0E02A2EAA0F33088B
:100C4000EE24E394BB24D21513040CF085C0F90103
:100C50005490F1E0FF121AC0962E8A01E72F690125
:100C6000991608F057C08E2E852021F0D8018C905F
:100C7000882A8C92E69531F4BFEFCB1ADB0AF60195
:100C80005490E0E893940F5F1F4FEACFF1101CC01F
:100C9000782E7094962E8A01E72F6901991608F034
:100CA00039C08E2E852021F0D8018C9087208C921F
:100CB000E69531F4BFEFCB1ADB0AF6015490E0E879
:100CC00093940F5F1F4FEACFF3E0FF122CC0782EF2
:100CD0007094862E8A01972E69018916D0F4E92D29
:100CE000E52141F0D801EC916C2E682460FE0FC024
:100CF000E82BEC93969439F4BFEFCB1ADB0AF6019C
:100D00005490E0E89E2E83940F5F1F4FE6CFE721BB
:100D1000F0CFCE25880F19F44C5A5F4F81E0DF5F8A
:100D20002A0D3B1D90CF962E8A01E72F6901991657
:100D300088F78E2E852021F0D8018C9088268C9201
:100D4000E69531F4BFEFCB1ADB0AF6015490E0E8E8
:100D500093940F5F1F4FEBCFDF91CF911F910F91B6
:100D6000FF90EF90DF90CF90BF90AF909F908F90CB
:100D70007F906F905F903F902F900895DC016435D5
:100D800070F5403360F590968C919097E62F062E83
:100D9000000CFF0B242F25952595259594E5290218
:100DA000E00DF11D1124E358FE4F2081342F3770E0
:100DB0008230B1F4822F90E0032E02C09595879582
:100DC0000A94E2F780958170811114C081E090E06F
:100DD00001C0880F3A95EAF78095822380830895B1
:100DE000833091F71C968C918170642760956170B7
:100DF0008613ECCF81E090E001C0880F3A95EAF7C6
:100E0000822BECCF9F92AF92BF92CF92DF92EF9264
:100E1000FF920F931F93CF93DF93C82FD62F042FEA
:100E2000E22E022E000CFF08E61AF10867FDF3948B
:100E3000F7FE03C0F194E194F108C02E002E000CDF
:100E4000DD08CC1AD108C7FDD394D7FE03C0D194D6
:100E5000C194D108CE14DF0434F4802F022F282F40
:100E60008C2FCD2FD82F0C1734F48D2FD22F282F65
:100E70008C2FC02F082FA02EAC1A822F022E000C10
:100E8000990B8D1B9109D7FD939597FF03C0919501
:100E900081959109B82E1A2DA7FE02C011E01A0DF6
:100EA000159599249A94D21714F4992493940C17B5
:100EB00094F04C2F6D2FCE14DF0414F04D2F6C2FB7
:100EC0008BEC93E00E94BE061B1917FF02C0D90DE0
:100ED0001A0DCF5FECCFDF91CF911F910F91FF9053
:100EE000EF90DF90CF90BF90AF909F900895EF92DA
:100EF000FF920F931F93CF93DF93C82FD62F142FFA
:100F0000F22E0E9402072E2D402F6F2D812F0E945E
:100F100002072D2F4C2F6E2D802FDF91CF911F9127
:100F20000F91FF90EF900C9402078F929F92AF92D7
:100F3000BF92CF92DF92EF92FF920F931F93CF93C6
:100F4000DF938C01F62EE42EC0E0D3E08AEFB82EBA
:100F50009EEFC92E822F8470A82E822F8270982E29
:100F6000822F8870882E2170D22ECF5F8C2F880F11
:100F70008F5FC80EAA2071F04E2D4D0F6F2D6C0F94
:100F8000C8010E94BE064E2D4C0F6D2F6F0DC8017B
:100F90000E94BE06992071F04E2D4D1B6F2D6C0FD7
:100FA000C8010E94BE064E2D4C1B6D2F6F0DC8014F
:100FB0000E94BE06882071F04E2D4C0F6F2D6D1BC8
:100FC000C8010E94BE064E2D4D0F6F2D6C1BC8012F
:100FD0000E94BE06DD2071F04E2D4C1B6F2D6D1B47
:100FE000C8010E94BE064E2D4D1B6F2D6C1BC80103
:100FF0000E94BE06CD173CF4C7FCB7CFD150B394C6
:10100000B394CB0CB2CFDF91CF911F910F91FF9092
:10101000EF90DF90CF90BF90AF909F908F9008950A
:10102000EF92FF920F931F93CF93DF938C01F62ED5
:10103000D42FE22EC0E0CE1544F46F2D6C0F4D2F4F
:10104000C8010E94BE06CF5FF6CFDF91CF911F91FE
:101050000F91FF90EF9008952F923F924F925F92E1
:101060006F927F928F929F92AF92BF92CF92DF92B8
:10107000EF92FF920F931F93CF93DF9300D000D096
:10108000CDB7DEB79C838B836A3099F4DC01189668
:101090002C91189715969C9115971A968C911A97E2
:1010A000299F800D11241A968C931A9719961C92D9
:1010B000F0C06D3009F4EDC0EB81FC815184F3E5A3
:1010C000F5150CF4C3C0AB81BC811A96FC90BFE24D
:1010D000BF150CF4BBC0EB81FC811085248121502D
:1010E000330B129FC001139F900D1124850D911D8C
:1010F00057FC9A95181619060CF0A8C025818F2D5B
:101100000F2C000C990B129F800D911D11241816A5
:1011100019060CF09BC0F0A1F983752C612C262ECA
:10112000312CA12E012E000CBB08E62D062C000C44
:10113000FF0BAB81BC8114968C91149790E0E8175B
:10114000F9070CF07EC00197E817F907A1F1289E76
:101150006001299ED00C389ED00C1124CE0EDF1ECB
:101160005E96ED91FC91EC0DFD1DE4910F2DE12CAF
:10117000B62DB50DBA83AB81BC8115962C91159710
:101180008E2D0E2C000C990B2817190609F00CF463
:1011900055C0CE2ED12CE0FF26C0113071F44E2D5B
:1011A0004F0D6A81CD010E94BE06F601F595E795C7
:1011B000E394010FE0CFE0E0D9CF402E4501800E4F
:1011C000911C07FD9A94842D042C000C990B881512
:1011D00099055CF7212F442D672D8B819C810E94FE
:1011E00010084394F0CFEB81FC8181A190A1891775
:1011F000E1F280A3113061F44E2D4F0D6A81CF01D1
:101200000E94BE06E981AB81BC819096EC93CDCF64
:10121000402E4501800E911C07FD9A94842D042CCC
:10122000000C990B881599056CF7212F442D672D1B
:101230008B819C810E9410084394F0CF6394710EBF
:1012400074CFE981AB81BC819096EC93AB81BC817A
:1012500018962C91189714963C91149719968C9186
:101260001997239F800D112419968C93199717961F
:101270009C911797992369F0082E000C990B44E56F
:1012800050E0239F401951091124481759070CF4C5
:1012900001CF81E090E00F900F900F900F90DF91C1
:1012A000CF911F910F91FF90EF90DF90CF90BF9063
:1012B000AF909F908F907F906F905F904F903F90F6
:1012C0002F9008950F931F93CF93DF938C01D0E05D
:1012D000C0E0F801EC0FFD1F6491662341F08BEC38
:1012E00093E00E942C08892B11F02196F2CFCE01B9
:1012F000DF91CF911F910F910895EF92FF920F937D
:101300001F93CF93DF938C01D62FF42EE22EC0E0F3
:10131000CE1544F44F2D4C0F6D2FC8010E94BE0610
:10132000CF5FF6CFDF91CF911F910F91FF90EF909C
:101330000895BF92CF92DF92EF92FF920F931F9387
:10134000CF93DF93EC01B62EF42E122F8AEFD82E16
:10135000D20E93E0C92EC60E2D2D6C2DCE010E940B
:101360001008EF2CE00E4FEF4E0D2D2D6C2DCE0101
:101370000E9410082AEFD22ED00E03E00F0D2D2D63
:10138000402F6B2DCE010E947D091B0D6FEF610F69
:101390002D2D402FCE010E947D0921E0402F6C2D84
:1013A000CE010E949507145022E0402F612FCE01FC
:1013B0000E9495070CEF0E0D24E0402F612FCE0107
:1013C0000E94950728E0402F6C2DCE01DF91CF9130
:1013D0001F910F91FF90EF90DF90CF90BF900C94F2
:1013E00095078F929F92AF92BF92CF92DF92EF922A
:1013F000FF920F931F93CF93DF93082FB62E942E57
:10140000A22E83E0F82ED0E0C3E09AEFE92E1EEF83
:10141000CC24C394C20EDF5F1F0D2C2F220F4B2D47
:101420004C1B8A2C8F0CDB2CDD1A81E02C0D602FDD
:10143000981218C06D0F8BEC93E00E947D09282D47
:101440004D2D6C2F600F8BEC93E00E947D09DC1713
:101450009CF417FD04C0C150E394E3941E0DF39473
:10146000F394D9CF6D1B8BEC93E00E947D09282D5E
:101470004D2D602F6C1BE7CFDF91CF911F910F9106
:10148000FF90EF90DF90CF90BF90AF909F908F90A4
:101490000895E4E5F1E0118210821582148213822E
:1014A0001282178216821186108682E090E093875E
:1014B0008287158614860895089590E080E0089547
:1014C000FB0101900020E9F73197AF01461B570B54
:1014D000DC01ED91FC910280F381E02D0994CF9322
:1014E000DF930E946209EC0169E271E08BEC93E00A
:1014F0000E94600A8C0F9D1FDF91CF9108958F92FB
:101500009F92AF92BF92EF92FF920F931F93CF9350
:10151000DF93CDB7DEB7A1970FB6F894DEBF0FBE4D
:10152000CDBF7C01FA01CB0119A2223008F42AE0D8
:101530008E010F5D1F4F822E912CB12CA12CBF016B
:10154000A50194010E94D01EF901CA016A300CF570
:10155000605DD8016E938D01232B242B252B79F709
:1015600090E080E0109721F0BD01C7010E94600A61
:10157000A1960FB6F894DEBF0FBECDBFDF91CF911D
:101580001F910F91FF90EF90BF90AF909F908F9021
:101590000895695CDECFCF92DF92EF92FF920F93B6
:1015A0001F93CF93DF936B01770FEE08FF08F7FED1
:1015B0001BC0EC016DE20E94E3048C014427552717
:1015C000BA014C195D096E097F092AE0CE010E941B
:1015D0007F0A800F911FDF91CF911F910F91FF9094
:1015E000EF90DF90CF9008952AE0B701A601DF9138
:1015F000CF911F910F91FF90EF90DF90CF900C94BF
:101600007F0A809158019091590160915601709123
:10161000570183309105A0F0069731F06A307105CB
:101620007CF484E090E008C0643671054CF488E0F6
:1016300090E06A307105ACF790936101809360018E
:1016400080916001835D8093D4038AE08093D50309
:1016500082E08093D3038BEC93E00E94CB0A81E07D
:101660008093D30310926101109260010895EDE719
:10167000F1E088EF91E0DF019C011D9221503040A4
:10168000E1F71092D4031092D50386E494E00E940F
:1016900062090E9428038CB583608CBD8DB58E7F56
:1016A0008DBD8CE291E0EEEFFFE309951092D1033E
:1016B00081E294E00E946F0A0E9428030E949F0327
:1016C00080919203813039F062E370E080E090E035
:1016D0000E94B104F3CF08954F925F926F927F9270
:1016E0008F929F92AF92BF92CF92DF92EF92FF9232
:1016F0000F931F93CF93DF9300D000D01F92CDB7ED
:10170000DEB74091FD035091FE036091FF0370919D
:1017100000042FB7F8948091790190917A01A091FB
:101720007B01B0917C012FBF481B590B6A0B7B0BCF
:101730008091FC0390E0B0E0A0E00091F8031091EC
:10174000F9032091FA033091FB0384179507A6074C
:10175000B70708F0CEC0011511052105310509F4C0
:10176000C8C02FB7F8948091790190917A01A09127
:101770007B01B0917C012FBF2091FC03820F911D52
:10178000A11DB11D8093FD039093FE03A093FF0361
:10179000B09300048091EE039091EF03A091F003C9
:1017A000B091F1030196A11DB11D8093EE039093BA
:1017B000EF03A093F003B093F1031092F80310929B
:1017C000F9031092FA031092FB030E948C046093B9
:1017D000F4037093F5038093F6039093F7038091DD
:1017E0007E0390917F032FE0289FA001299F500D39
:1017F00011245A83498385E10E944304A981BA8157
:101800008A0F9B1FB4E096958795BA95E1F7909360
:101810007F0380937E0320917D03222309F448C037
:1018200060918103262F30E050E040E029833A8325
:101830004B835C83C0908203D12CF12CE12C40912E
:101840008503509186034A01B12CA12C209183037A
:10185000309184032901712C612C8217930728F0A1
:101860009C014817590708F49A0150E040E02419F8
:1018700035094609570969817A818B819C816C19E8
:101880007D098E099F090E94301FA501940124192A
:101890003509460957090E94671EC20ED31EE41E71
:1018A000F51EC09280036C2D70E085E00E94E60377
:1018B0000E949F038091990390919A03892B11F0C4
:1018C0000E94550481E00F900F900F900F900F90A1
:1018D000DF91CF911F910F91FF90EF90DF90CF900C
:1018E000BF90AF909F908F907F906F905F904F9040
:1018F0000895012B022B032B09F0A5C280919403BC
:1019000081508E3F18F5809193038130F9F48091D6
:10191000A7038F5F6091A80387FD09C0082E000C04
:10192000990B70E06F5F7F4F0E944C1F682F609390
:10193000A7038AE194E0909302048093010488E471
:101940008093030482EA93E00E94690580919403E6
:1019500081508E3F70F480919203813009F0F8C27B
:101960008DE094E0909302048093010488E48093D6
:1019700003048091A203882331F08091A303811195
:1019800002C00E9426058091A303882309F43EC06B
:101990008091B70381113AC08091AF039091B00359
:1019A000E091B403F091B503EE0FFF1FE80FF91FAC
:1019B000259134912115310509F4BDC0A901569531
:1019C000479556954795842F20FD60C08F7380936F
:1019D000B6038091A603839F802D11248093B703C3
:1019E0001092C7031092C6031092C50381E0809342
:1019F000B903809378011092BA038091B403909157
:101A0000B50301969093B5038093B4038091B90315
:101A1000882341F08091B7038111A9C082EA93E045
:101A20000E94170580910304882309F4C3C18C30F8
:101A300008F087C13CE0381B398381E08093D303F1
:101A40001092EB031092EC034091D0034D8383E09E
:101A5000E82EE40E1981141B0DE2010F0E2C000C70
:101A6000FF08E00EF11C07FDFA94802F002E000CF9
:101A7000990B8E159F050CF066C12EE4402F63E094
:101A80008BEC93E00E9410080F5FEFCFC901E6E0F6
:101A900096958795EA95E1F78F71932F9695969590
:101AA000969590514F70423099F1D0F4442309F447
:101AB0003CC04130B9F1E091B403F091B5033196E7
:101AC000F093B503E093B403CF01880F991FE09121
:101AD000AF03F091B003E80FF91F259134916ECF59
:101AE000433061F0443039F72091A603289F802DC0
:101AF00011248093BF039093C003DDCF2091A603F0
:101B0000289F802D11248093BD039093BE03D3CFD3
:101B10002091A603289F802D11248093BB039093CE
:101B2000BC03C9CF0E948602C6CF8B3008F08AE082
:101B30008093B803C0CF2091B303211112C010923B
:101B4000A3038091A203811105C082EA93E00E9461
:101B500017055CCF0E9426058091B4039091B503D0
:101B6000B4CF1092B5031092B403FC01B6CF8150EC
:101B70008093B7038091C703811142C02091C503B0
:101B80003091C6032F5F3F4FC901880F991FE09125
:101B9000C103F091C203E80FF91F85919491482F7A
:101BA00047704093C803492F469546954093C90313
:101BB000AC0164E0569547956A95E1F74F739091B3
:101BC000A603499F402D11244093C70383FB882718
:101BD00080F9809377013093C6032093C5038091E9
:101BE000C30390E02817390758F02091C40322233B
:101BF00009F49FC0821B91099093C6038093C5038B
:101C00008091C70381508093C7038091BA0331E06C
:101C1000380F3093BA034091B6032091C903240FC3
:101C20008091AE03280F2093A4036091BD03662327
:101C300071F070E0832F032E000C990B0E944C1F53
:101C40008091BE03869F200D11242093A4038091D0
:101C5000A40390E0849664E270E00E944C1F80939D
:101C6000A4032091B8032093A5036091BB036623CE
:101C700081F0062E000C770B832F032E000C990B9E
:101C80000E944C1F8091BC03869F200D112420933D
:101C9000A5036091BF036623A1F0832F330F990B37
:101CA00070E00E944C1FCB0162E070E00E944C1F6C
:101CB0002091C0039091A503289F900D112490932B
:101CC000A5034F3309F43AC08091A5038A300CF084
:101CD00089E087FD80E08093A503F894E091A40358
:101CE000F0E0E751FC4FE491E09376012091CA03C4
:101CF0003091A5033203900111244091C80342039F
:101D0000C001439F900D11242091A70302C0880FAA
:101D1000991F2A95E2F797FF02C081589F4F880FBD
:101D2000892F881F990B8093750180937401789493
:101D300079CE82EA93E00E94170562CF1092A50344
:101D4000CCCF19827ACE5D8154505D83105D252FF2
:101D500041E0612F80E50E94F1092D8142E0612F71
:101D600083E00E94F10981E08093EB038093EC0310
:101D70008091D00303E0080F4981481B435D24E5AF
:101D800060E08BEC93E00E94990984E08093D40397
:101D90008091D0039981981B915D9093D503809198
:101DA0000104909102040E94620980910304815011
:101DB000809303048091990390919A03892BD9F021
:101DC000A1E0A093EB031092EC039091CF0385E583
:101DD000891B8093D4031092D503609196036130E0
:101DE00009F49AC090F180919503653008F0ABC07A
:101DF0006B5F8111A3C00E9428038091D1038111E0
:101E00000EC0EDE7F1E088EF91E0DF019C011D924B
:101E100021503040E1F71092D4031092D5030E9474
:101E20008C046093F8037093F9038093FA03909302
:101E3000FB032091F4033091F503621B730B709345
:101E4000F3036093F20380E03ECD82EA93E00E94C8
:101E500017051092A303B1E0B093D303E7E6F2E0D5
:101E6000E491EF5FE093CF03E8E6F2E0E491EF5F07
:101E7000E093D00389E692E09093EA038093E9032C
:101E800010929A03109299031092D10328EA2983A1
:101E90000E946C0B8823E1F389E592E00E946209BD
:101EA000409197035091980370E060E02AE08BEC3A
:101EB00093E00E947F0A84E492E00E9462096981B3
:101EC00062956F7070E08BEC93E00E94CB0A89E31F
:101ED00092E00E94620980919203813009F48BCFD5
:101EE0003981315039833111D3CF70E060E085E022
:101EF0000E94E60383B7817F846083BF83B78160DC
:101F000083BF83B7816083BF889583B78E7F83BF8C
:101F100083B78E7F83BFBCCF8091EE039091EF0398
:101F2000A091F003B091F1038F709927AA27BB27E6
:101F300067E00897A105B10508F068E78BEC93E02E
:101F40000E94E30458CF882309F455CF6FE2F6CFFF
:101F5000893209F00ECD0E94370B0BCD0F931F93E2
:101F6000CF93DF93EC0188819981009759F02A8102
:101F70003B812617370730F081E0DF91CF911F9129
:101F80000F9108958B016F5F7F4F0E947A1F00971A
:101F900059F0998388831B830A832C813D81232BED
:101FA00059F7FC011082E8CF80E0E7CFEF92FF9273
:101FB0000F931F93CF93DF936115710541F480E078
:101FC000DF91CF911F910F91FF90EF9008954115F0
:101FD0005105B1F07B01EC010C811D81040F151F2F
:101FE000B8010E94AE0F882351F3288139818C817A
:101FF0009D81B701820F931F0E9440201D830C8397
:1020000081E0DECFCF93DF93EC0188819981009747
:1020100011F00E94AE1B198218821D821C821B8245
:102020001A82DF91CF910895CF93DF93EC01FB01EA
:1020300001900020E9F73197AF01461B570B0E9432
:10204000D60F811103C0CE010E940210CE01DF9194
:10205000CF910895EF92FF920F931F93CF93DF9349
:10206000EC017B018A01BA010E94AE0F81110BC005
:10207000CE010E940210CE01DF91CF911F910F91EE
:10208000FF90EF9008951D830C83B701888199819B
:102090000E944020F0CFEF92FF920F931F93CF93B7
:1020A000DF93CDB7DEB762970FB6F894DEBF0FBEF1
:1020B000CDBF8C01CB01F8011182108213821282F4
:1020C000158214824AE09E012F5F3F4F7901B901CA
:1020D0000E94371DF70101900020E9F73197AF0109
:1020E0004E195F09B701C8010E942A1062960FB607
:1020F000F894DEBF0FBECDBFDF91CF911F910F913E
:10210000FF90EF900895CF93DF93EC01FB018617CA
:10211000970749F0608171816115710541F0448133
:1021200055810E942A10CE01DF91CF9108950E941F
:102130000210F9CFCF93DF93C6E4D1E01982188261
:102140001B821A821D821C8250E040E06BE271E02B
:102150008CE491E00E942A101D861C86DF91CF91AD
:102160000895FC0180819181009711F00C94AE1BC1
:1021700008958F929F92AF92BF92CF92DF92EF928B
:10218000FF920F931F93CF93DF938091ED038823EA
:1021900009F4DBC081E08093D3031092D203109244
:1021A000D103109295038093EB038093EC03CEEE62
:1021B000D1E01CE00E946C0B8823E1F3FE01049146
:1021C00001110091D0032CE830E040E060E08BEC9E
:1021D00093E00E947E054CE0400F2CEF30E060E081
:1021E0008BEC93E00E947E051092D4031093D503EC
:1021F0008EEE91E00E9462098091CF03982F990F93
:10220000990F891B8D5A8093D4038091D003982F06
:10221000990F990F891B835D8093D5038091EE03FD
:1022200084FF68C088E890E00E946F0A8091CF0325
:10223000982F990F990F891B8D5A8093D403809101
:10224000D5038F5F8093D5038091A703882309F47A
:1022500054C080E890E00E946F0A8091CF03982FCD
:10226000990F990F891B8D5A8093D4038091D503C0
:102270008F5F8093D50388E790E00E946F0A80917A
:1022800093038130B1F48091A7038F5F6091A8031D
:1022900087FD09C0082E000C990B70E06F5F7F4F1F
:1022A0000E944C1F682F6093A70382EA93E00E946C
:1022B000690580919203813019F18091ED03482FD7
:1022C00050E070E060E0C090EE03D090EF03E0904B
:1022D000F003F090F103C416D506E606F70610F0F9
:1022E0008F3F71F480919403813009F063CF0E9495
:1022F000370B60CF84E890E097CF8CE790E0ABCFCE
:102300008FEF8093ED0382EA93E00E94170510920D
:10231000A30382EA93E00E94170580E790E0909380
:10232000B0038093AF031092B5031092B40381E021
:102330008093A30399E09093B8031092BB0310928B
:10234000BD031092BF0380939503C0909703D09074
:102350009803C094D094F12CE12C0E948C044B0182
:102360005C010E948C04A501940120953095409554
:10237000509560957095809590950E94301F9B01B7
:10238000AC01C701B6010E94301F4B015C01C09037
:102390007E03D0907F03F12CE12C0E948C046C0D05
:1023A0007D1D8E1D9F1D680D791D8A1D9B1D61154C
:1023B00071058105910511F00E942E1D1092950363
:1023C00010926C0110926B018091EE039091EF03DB
:1023D00090936E0180936D010E94490A81E0809381
:1023E000670196E0909368019FE090936901809364
:1023F0006A0181E090E090936301809362010E9402
:102400009A1010923F0110923E01109241011092D9
:102410004001109243011092420110924501109226
:102420004401DF91CF911F910F91FF90EF90DF90CA
:10243000CF90BF90AF909F908F9008951F920F9272
:102440000FB60F9211242F933F938F939F93AF93C7
:10245000BF938091790190917A01A0917B01B09115
:102460007C0130916F0123E0230F2D3758F5019641
:10247000A11DB11D20936F018093790190937A0182
:10248000A0937B01B0937C018091700190917101C8
:10249000A0917201B09173010196A11DB11D8093AD
:1024A000700190937101A0937201B0937301BF9179
:1024B000AF919F918F913F912F910F900FBE0F90F1
:1024C0001F90189526E8230F0296A11DB11DD2CFAB
:1024D0001F920F920FB60F9211242F936F937F9339
:1024E0008F939F9360917501662349F180913C0120
:1024F0008F5F80933C0190917601891700F12091C4
:10250000780181E028272093780110923C01809186
:102510007701882369F08091000193E4899F802DE1
:102520001124895B809300010E94401F90937401E5
:1025300080917401211101C080E08093B4009F91CB
:102540008F917F916F912F910F900FBE0F901F90E1
:102550001895CF93DF93CDB7DEB762970FB6F89497
:10256000DEBF0FBECDBF789484B5826084BD84B5D4
:10257000816084BD85B5826085BD85B5816085BD7E
:1025800080916E00816080936E0010928100809136
:1025900081008260809381008091810081608093BE
:1025A0008100809180008160809380008091B100E3
:1025B00084608093B1008091B00081608093B0000E
:1025C00080917A00846080937A0080917A008260A2
:1025D00080937A0080917A00816080937A00809164
:1025E0007A00806880937A001092C10082E3809321
:1025F000FC0381E090E0A0E0B0E08093F8039093CA
:10260000F903A093FA03B093FB038FEF8093ED03DC
:10261000E0E8F7E7259134912130304C09F028C2E9
:10262000E6E9F7E7E491E093D603E7E9F7E7E49119
:10263000E0938103E8E9F7E7E491E0938203E9E9B5
:10264000F7E7859194919093840380938303EBE95A
:10265000F7E785919491909386038093850387E0B3
:102660008093A803EEE9F7E7E491E093A703EFE98D
:10267000F7E7E491E093ED03E0EAF7E785919491C1
:1026800090939A0380939903E2EAF7E785919491F6
:1026900090939C0380939B03E4EAF7E785919491E0
:1026A00090939E0380939D03E6EAF7E785919491CA
:1026B0009093A00380939F0311E010937D036FEF2D
:1026C00070E085E00E94E60388E08093870389E05C
:1026D0008093880387E08093890386E080938A0350
:1026E00004E000938B0382E080938C0381E180936C
:1026F0008D030E949F038CE39FE090939803809347
:102700009703009396031093A1038BE08093D90362
:102710008DE08093D80380E18093DA038EE080938C
:10272000DC038FE08093DB031093D3031093EB0360
:102730001092EC031093D203E7E6F2E0E491EF5F2E
:10274000E093CF03E8E6F2E0E491EF5FE093D0039B
:1027500089E692E09093EA038093E9031FB7F89427
:1027600080913D01811127C0E2E8F4E08491E6E91F
:10277000F4E09491E82FF0E0EE0FFF1FEB5DFD4FCA
:10278000A591B491EC91E92321F461E08AE00E94E3
:10279000DB0261E08AE00E9463038CB580618CBD3E
:1027A0008CB580648CBD61E08DE00E94630361E0C4
:1027B0008BE00E94630380913D018F5F80933D0118
:1027C0001FBF8CB58F7D8CBD8CB58C7F81608CBD1F
:1027D0008DB581608DBD8CB58C608CBD61E08091C4
:1027E000D9030E94630361E08091D8030E946303D0
:1027F00061E08091DA030E9463038091DC03181684
:102800001CF461E00E9463038091DB0318161CF442
:1028100061E00E9463038091DC03181674F460E0A9
:102820000E94DB026AE070E080E090E00E94B10468
:1028300061E08091DC030E94DB028091D803082EC6
:10284000000C990BFC01E858FB4FE491F0E0EE0F0F
:10285000FF1FE15DFD4F259134913093E0032093FC
:10286000DF03FC01E457FB4FE491E093E603809122
:10287000D903082E000C990BFC01E858FB4FE4919A
:10288000F0E0EE0FFF1FE15DFD4F25913491309395
:10289000DE032093DD03FC01E457FB4FE491E0935A
:1028A000E5038091DB03082E000C990BFC01E8582E
:1028B000FB4FE491F0E0EE0FFF1FE15DFD4F25912E
:1028C00034913093E2032093E103FC01E457FB4F82
:1028D000E491E093E7038091DA03082E000C990B52
:1028E000FC01E858FB4FE491F0E0EE0FFF1FE15DC3
:1028F000FD4F259134913093E4032093E303FC01D1
:10290000E457FB4FE491E093E80381E20E9409035E
:1029100084E10E9409038091D60387FF03C08FE7FB
:102920008093D6038091D60380680E94090380E2D9
:102930000E9409038CE00E9409030E94280381E0A1
:102940008093A60384E08093CA0385E092E090938D
:10295000B2038093B10380E00E94860261E070E0E0
:1029600083E00E94E6038091B100887F81608093BC
:10297000B100F894109280001092810010928500AE
:102980001092840088E191E0909389008093880000
:1029900080918100886080938100809181008160B6
:1029A0008093810080916F00826080936F007894A3
:1029B0008091990390919A03892B11F00E945504FC
:1029C00080919303813009F480C08091960388231D
:1029D00009F47BC082EA93E00E94170589E092E047
:1029E0009093B0038093AF031092B5031092B40399
:1029F00081E08093A30389E08093B8031092BB0326
:102A00001092BD031092BF030E94B910E2E08E2E17
:102A1000912CFCE0CF2ED12CA5E0AA2EB12C0E9447
:102A20006C0B882309F4AAC380919403813011F4BC
:102A30000E94B9107BE1E72E71E0F72E612C10E0C7
:102A400000E070906801701611060CF441C01092FD
:102A5000D4036092D503F701619171917F018BECF2
:102A600093E00E94CB0A0F5F1F4FF6E06F0EE9CF95
:102A70009CE39093D603109281038093820380E2BB
:102A800093E0909384038093830384ED93E0909389
:102A900086038093850387E08093A8038093A70330
:102AA0008CEA9DE090939A03809399038EED9DE0CC
:102AB00090939C0380939B0384E79EE090939E03F6
:102AC00080939D038CE39FE0F3CD1092A7039CCFEE
:102AD0004091EE035091EF036091F0037091F10388
:102AE00041705527662777278091690190916A0187
:102AF000992309F4BAC0452B462B472B19F48F5F55
:102B00008093690180916901813110F010926A010E
:102B1000809191038F3F79F08370813061F410913F
:102B2000670182EA93E00E9469051F5F711608F44D
:102B3000ACC01093670180918F038F3F69F0837061
:102B4000813051F41091670182EA93E00E94690597
:102B500011119EC07092670110916701412F440FBF
:102B6000410F440F2EE132E0609169018BEC93E05C
:102B70000E947E05809192038130C1F540916D01E4
:102B800050916E01052E000C660B770B8091EE03C1
:102B90009091EF03A091F003B091F103841B950B8A
:102BA000A60BB70B0697A105B10500F121E030E0B7
:102BB00030936C0120936B010E94490A812F90E0B1
:102BC000909363018093620190935901809358011F
:102BD00088E290E090935501809354018091EE0338
:102BE0009091EF0390935B0180935A01809193033E
:102BF0008E3111F40E949A1080916B0190916C01BA
:102C0000009709F049C08DE28093D4038AE0809355
:102C1000D50382E08093D303E12FF0E0EE0FFF1F96
:102C2000E55EFE4F608171818BEC93E00E94CB0AE0
:102C300081E08093D3038091670190E090936301DA
:102C400080936201E0916201F0916301E730F10548
:102C500008F0ACC4E25DF94E0C94601FEE17F61755
:102C6000C618E4183119A819F719452B462B472B1C
:102C700019F4815080936901809169018E3008F0C8
:102C800047CF81E080936A0143CF1092670153CF11
:102C900011501093670160CF8130910509F000C198
:102CA00020915C0130915D0180915401909155011A
:102CB000281739070CF03FC020915E0130915F0169
:102CC000032E000C440B550B6091EE037091EF0343
:102CD0008091F0039091F1030E94D01E672B682B26
:102CE000692BE9F400915801109159010E94831C4D
:102CF000000F111FF801E55EFE4F608171810E9497
:102D00004C1F0196909357018093560180915E016C
:102D100090915F01019690935F0180935E01809195
:102D20005C0190915D01019690935D0180935C013F
:102D30000E94010B87CF28173907D1F780914A01EC
:102D400090914B0108970CF073C0E0905601F09001
:102D50005701E0915801F0915901EE0FFF1FE55E18
:102D6000FE4F60817181CE010D960E944B10B7011C
:102D7000CE0101960E944B1018861F821A86198672
:102D80001C861B86BE016F5F7F4FCE0107960E9497
:102D9000831063E371E0CE0107960E94141065E38F
:102DA00071E00E9414108C0149895A896D857E85D5
:102DB0000E94D60F811103C0C8010E94021067E370
:102DC00071E0C8010E9414108C0140915001509193
:102DD000510160914C0170914D010E94D60F8111FB
:102DE00003C0C8010E940210B8018CE491E00E9467
:102DF0008310CE0107960E94B110CE0101960E9469
:102E0000B110CE010D960E94B110809146019091B3
:102E10004701E80EF91EF0924701E09246018091C9
:102E20004A0190914B01019690934B0180934A0186
:102E30002091580130915901809160019091610178
:102E40002330310530F58C969093410180934001F9
:102E5000D0924301C0924201B0924501A092440138
:102E600081E0809364018091EE039091EF03909351
:102E700066018093650180915C0190915D010196EE
:102E800090935D0180935C0190926C0180926B0144
:102E90004FCF2630310511F4C496D6CFC096D4CF8B
:102EA000029709F0CFCE0E94010B4091EE035091A2
:102EB000EF036091F0037091F103809165019091AF
:102EC0006601092E000CAA0BBB0B8A019B01081B93
:102ED000190B2A0B3B0BD901C8010C97A105B105B1
:102EE00008F079C080916401882309F474C040FD22
:102EF00009C080914401909145010196909345014C
:102F000080934401F0904201109144016F2C610EB6
:102F100000914001E12EE00E27E132E0462D6E2DBA
:102F20008BEC93E00E947E057F2C711A27E132E042
:102F3000472D6E2D8BEC93E00E947E05E02EE11A6A
:102F400027E132E0462D6E2D8BEC93E00E947E054A
:102F500027E132E0472D6E2D8BEC93E00E947E0539
:102F6000E0915801F0915901EE0FFF1FE55EFE4F11
:102F7000209156013091570180819181281739079E
:102F800009F060CEE12EEE0C4F2D4E0D27E132E020
:102F9000602F8BEC93E00E947E051195110F4F2D51
:102FA000410F27E132E0602F8BEC93E00E947E0519
:102FB000602F6E0D27E132E04F2D8BEC93E00E94E5
:102FC0007E05602F610F27E132E04F2D8BEC93E0FF
:102FD0000E947E0537CE1092640134CE25E1E22EA8
:102FE00004E225E14CE362E080E3FEC104E124E178
:102FF00045E066E28BEC93E00E94990921E04CE207
:1030000066E087E20E94020721E04EE366E089E382
:103010000E94020721E14EE366E189E30E94020774
:1030200021E04EE361E08CE20E94020721E04EE3E2
:1030300061E18EE30E94020720918E038091480196
:10304000909149012F3F09F4B7C220FFB5C2029702
:103050009093490180934801809148018093D40363
:103060003BE23093D5034091500150915101609162
:103070004C0170914D018BEC93E00E94EA0489E4CD
:103080008093D4039EE19093D50360914A0170919F
:103090004B01683071050CF098C2CE0107960E9472
:1030A0004B101A8219821C821B821E821D82BE0155
:1030B000695F7F4FCE0101960E9483106AE371E041
:1030C000CE0101960E941410FC014481558160815B
:1030D00071818BEC93E00E94EA04CE0101960E947C
:1030E000B110CE0107960E94B110F9E4F093D40319
:1030F00004E20093D50360914601709147018BEC87
:1031000093E00E94CB0A24E549E260E08BEC93E077
:103110000E9410082EE04CE167E48BEC93E00E94E3
:1031200010082EE049E267E48BEC93E00E9410085F
:103130002EE04CE167E48BEC93E00E947D092EE0E9
:103140004CE164E58BEC93E00E947D098091930350
:103150009FEF980F9E3F08F03FC2809152019091DF
:103160005301039690935301809352012091520191
:103170004AE260E08BEC93E00E94100820E030E02F
:10318000232B09F44CCC0E94000049CC05E1E02E31
:1031900004E225E14CE362E080E30E94770725E149
:1031A0004CE36EE180E30E9477078AE0E82E0CE3AF
:1031B00025E14CE362E080E30E94770795E1E92E88
:1031C00004E22AE044E20FCF23E142E462E083E339
:1031D0000E94020723E144E262E083E30E940207C7
:1031E00029E143E363E184E20E94020729E143E32A
:1031F00063E182E40E94020727E149E463E182E49B
:103200000E94020727E149E46FE089E40E94020777
:1032100022E043E36FE089E40E9402072FE04DE1E2
:1032200067E18DE10E94020722E043E36FE08DE158
:103230000E94020725E243E369E183E30E9402075B
:1032400025E243E367E189E40E94020725E243E3C4
:1032500067E18DE10E94020723E144E267E18DE12D
:10326000E9CE28E04BE368E08BE20E94020720E110
:1032700045E268E08BE20E9402072AE143E360E155
:1032800085E20E94020720E141E468E08BE30E94AE
:1032900002072AE143E360E181E40E9402072EE194
:1032A00043E36AE183E30E9402072EE143E36CE11A
:1032B00086E20E94020722E140E26CE186E20E947F
:1032C000020722E140E260E185E20E9402072EE16E
:1032D00043E36CE180E40E94020722E146E46CE1F2
:1032E00080E40E94020722E146E460E181E40E945A
:1032F00002072AE046E462E186E40E94020724E035
:1033000040E46AE086E40E94020724E040E468E0CA
:103310008BE30E9402072AE040E262E180E20E9421
:10332000020724E046E26AE080E20E94020724E00D
:1033300046E268E08BE20E94020724E040E460E09D
:1033400083E30E94020724E046E260E083E372CE5A
:10335000EBE1EE2E03E329E041E469E085E20E941F
:103360007707E12C29E041E469E085E20E947707D4
:10337000FBE1EF2E01E22BE143E369E085E20E94ED
:10338000770729E041E269E085E20E947707E12CB6
:1033900003E329E041E269E085E20E947707ABE1BF
:1033A000EA2E29E041E46BE185E40E947707B9E069
:1033B000EB2E05E429E041E46BE185E40E94770708
:1033C00029E041E460E083E30E9477071BE1E12EFE
:1033D00001E22BE143E364E283E30E94770703E326
:1033E00024E243E36BE185E40E94770725CE4EE1BA
:1033F00067E38BEC93E00E94BE0640E067E38BEC52
:1034000093E00E94BE064FE066E48BEC93E00E94DE
:10341000BE064FE068E28BEC93E00E94BE0610E02F
:103420000FE042EE642E52EFE52E67E3462E7FE07A
:10343000572EF12E1F5F812F880F8F5FE80E98E3C4
:10344000292E2F0C2FE0722E700E472D622D8BEC43
:1034500093E00E94BE06342C311A472D632D8BEC6D
:1034600093E00E94BE06752C701A472D622D8BECDE
:1034700093E00E94BE06472D632D8BEC93E00E94E3
:10348000BE0620E1F20E4F2D37E3732E700E672D2E
:103490008BEC93E00E94BE064F2DF42CF01A6F2D9A
:1034A0008BEC93E00E94BE06352C311A432D672D1C
:1034B0008BEC93E00E94BE06432D6F2D8BEC93E0C6
:1034C0000E94BE0610170CF46AC02AE148E06AE2C6
:1034D0008BEC93E00E9410082BE145E16AE28BEC53
:1034E00093E00E94100827E145E06CE28BEC93E04A
:1034F0000E94100829E148E16BE28BEC93E00E9406
:10350000100823E045E06EE28BEC93E00E947D0919
:1035100023E045E06EE38BEC93E00E947D0923E01D
:1035200045E066E38BEC93E00E947D0923E042E0F6
:1035300062E38BEC93E00E947D0925E041E06AE3C1
:103540008BEC93E00E947D0923E045E162E48BEC83
:1035500093E00E947D0923E045E162E38BEC93E078
:103560000E947D0923E045E16AE38BEC93E00E9431
:103570007D0923E049E16EE28BEC93E00E947D0936
:1035800023E049E16EE38BEC93E00E947D0925E0A6
:1035900049E166E38BEC93E00E947D094DCDE7FCA9
:1035A00048CF015063946394E60C43CF85E1E82E45
:1035B00005E225E14BE317CD209190032F3F09F45D
:1035C0004BCD20FF49CD029643CD69E371E08BECF2
:1035D00093E00E94600A89CD8F3F09F0C7CD109219
:1035E000530110925201C2CD1092CE031092CD031E
:1035F00083E191E09093CC038093CB03E6E4F1E088
:1036000017821682118610861386128650E040E0DB
:103610006BE271E08CE491E00C942A108CE491E070
:103620000C94B1100F931F93CF93DF9382309105C9
:1036300010F482E090E0E0910604F091070430E09D
:1036400020E0B0E0A0E0309799F42115310509F4AD
:103650004AC0281B390B24303105D8F58A819B815B
:103660006115710589F1FB0193838283FE0111C00D
:10367000408151810281138148175907E0F04817B2
:10368000590799F4109761F012960C9312971396BC
:103690001C933296CF01DF91CF911F910F91089526
:1036A0000093060410930704F4CF2115310551F05F
:1036B0004217530738F0A901DB019A01BD01DF0170
:1036C000F801C1CFEF01F9CF90930704809306046E
:1036D000CDCFFE01E20FF31F819391932250310968
:1036E00039832883D7CF2091040430910504232BFC
:1036F00041F420910301309104013093050420939B
:10370000040420910101309102012115310541F499
:103710002DB73EB74091050150910601241B350B92
:10372000E0910404F0910504E217F307A0F42E1BC6
:103730003F0B2817390778F0AC014E5F5F4F241715
:10374000350748F04E0F5F1F509305044093040463
:10375000819391939FCFF0E0E0E09CCFCF93DF93F4
:103760000097E9F0FC01329713821282A0910604BF
:10377000B0910704ED0130E020E01097A1F4208122
:103780003181820F931F2091040430910504281782
:10379000390709F061C0F0930504E0930404DF9158
:1037A000CF910895EA01CE17DF07E8F54A815B81E2
:1037B0009E0141155105B1F7E901FB83EA83499167
:1037C0005991C40FD51FEC17FD0761F480819181D9
:1037D0000296840F951FE9019983888382819381E2
:1037E0009B838A83F0E0E0E012968D919C91139781
:1037F0000097B9F52D913C911197CD010296820F5A
:10380000931F20910404309105042817390739F6D5
:10381000309751F51092070410920604B0930504F6
:10382000A0930404BCCFD383C28340815181840F11
:10383000951FC817D90761F44E5F5F4F8881998142
:10384000480F591F518340838A819B8193838283D0
:103850002115310509F0B0CFF0930704E093060479
:103860009ECFFD01DC01C0CF13821282D7CF8F9291
:103870009F92AF92BF92CF92DF92EF92FF92CF933F
:10388000DF93EC01688179818A819B8161157105E3
:103890008105910521F464E279ED8BE597E02DE156
:1038A00033EF41E050E00E94671E49015A019B013D
:1038B000AC01A7EAB1E40E94861E6B017C01ACEE6C
:1038C000B4EFA50194010E94941EDC01CB018C0D84
:1038D0009D1DAE1DBF1DB7FF03C00197A109B048D4
:1038E00088839983AA83BB839F77DF91CF91FF90D1
:1038F000EF90DF90CF90BF90AF909F908F90089502
:103900000E94371C089587E091E00E94371C0895BB
:10391000B0E0A0E08093070190930801A093090113
:10392000B0930A0108958F929F92AF92BF92CF9267
:10393000DF92EF92FF92CF93DF93EC016881798160
:103940008A819B81611571058105910521F464E2ED
:1039500079ED8BE597E02DE133EF41E050E00E94F7
:10396000671E49015A019B01AC01A7EAB1E40E941C
:10397000861E6B017C01ACEEB4EFA50194010E94A0
:10398000941EC60ED71EE81EF91EF7FE06C081E083
:10399000C81AD108E10880E8F80AC882D982EA8208
:1039A000FB82C701B6019F77DF91CF91FF90EF9027
:1039B000DF90CF90BF90AF909F908F9008958F929F
:1039C0009F92AF92BF92CF92DF92EF92FF9260915F
:1039D0000B0170910C0180910D0190910E01611508
:1039E00071058105910521F464E279ED8BE597E09D
:1039F0002DE133EF41E050E00E94671E49015A017A
:103A00009B01AC01A7EAB1E40E94861E6B017C0118
:103A1000ACEEB4EFA50194010E94941EC60ED71E11
:103A2000E81EF91EF7FE06C081E0C81AD108E108B9
:103A300080E8F80AC0920B01D0920C01E0920D01CF
:103A4000F0920E01C701B6019F77FF90EF90DF90D3
:103A5000CF90BF90AF909F908F90089560930B018F
:103A600070930C0180930D0190930E010895BB2774
:103A70004A3031F4992322F4BDE2909581959F4F0D
:103A80000C94431DBB27FB015527AA27880F991FBC
:103A9000AA1FA41710F0A41B83955051B9F7A05D7D
:103AA000AA3308F0A95DA193009779F7B111B193FA
:103AB0001192CB010C945C1DDC01FC01672F71910C
:103AC0007723E1F7329704C07C916D937083629104
:103AD000AE17BF07C8F30895E89409C097FB3EF4FA
:103AE00090958095709561957F4F8F4F9F4F99234B
:103AF000A9F0F92F96E9BB279395F69587957795C9
:103B00006795B795F111F8CFFAF4BB0F11F460FF88
:103B10001BC06F5F7F4F8F4F9F4F16C0882311F0E0
:103B200096E911C0772321F09EE8872F762F05C0F4
:103B3000662371F096E8862F70E060E02AF09A958F
:103B4000660F771F881FDAF7880F9695879597F984
:103B500008950E94BC1D0C942D1E0E941F1E38F05B
:103B60000E94261E20F0952311F00C94161E0C9432
:103B70001C1E11240C94611E0E943E1E70F3959F22
:103B8000C1F3950F50E0551F629FF001729FBB2754
:103B9000F00DB11D639FAA27F00DB11DAA1F649FF0
:103BA0006627B00DA11D661F829F2227B00DA11DA3
:103BB000621F739FB00DA11D621F839FA00D611D29
:103BC000221F749F3327A00D611D231F849F600D4A
:103BD000211D822F762F6A2F11249F5750409AF073
:103BE000F1F088234AF0EE0FFF1FBB1F661F771FFF
:103BF000881F91505040A9F79E3F510580F00C94CA
:103C0000161E0C94611E5F3FE4F3983ED4F3869534
:103C100077956795B795F795E7959F5FC1F7FE2B69
:103C2000880F911D9695879597F9089597F99F6745
:103C300080E870E060E008959FEF80EC0895002434
:103C40000A941616170618060906089500240A9401
:103C500012161306140605060895092E0394000C87
:103C600011F4882352F0BB0F40F4BF2B11F460FF16
:103C700004C06F5F7F4F8F4F9F4F089557FD90583F
:103C8000440F551F59F05F3F71F04795880F97FB20
:103C9000991F61F09F3F79F08795089512161306DA
:103CA0001406551FF2CF4695F1DF08C01616170609
:103CB0001806991FF1CF869571056105089408953E
:103CC000E894BB2766277727CB0197F90895052E3F
:103CD00097FB1EF400940E947E1E57FD07D00E94A1
:103CE000D01E07FC03D04EF40C947E1E50954095D8
:103CF000309521953F4F4F4F5F4F08959095809598
:103D0000709561957F4F8F4F9F4F08950E94F21ECF
:103D1000A59F900DB49F900DA49F800D911D11241F
:103D20000895B7FF0C94861E0E94861E821B930B7B
:103D300008952F923F924F925F926F927F928F924F
:103D40009F92AF92BF92CF92DF92EF92FF920F932A
:103D50001F93CF93DF93CDB7DEB7CA1BDB0B0FB634
:103D6000F894DEBF0FBECDBF09942A8839884888F1
:103D70005F846E847D848C849B84AA84B984C88487
:103D8000DF80EE80FD800C811B81AA81B981CE0F7E
:103D9000D11D0FB6F894DEBF0FBECDBFED01089563
:103DA000A1E21A2EAA1BBB1BFD010DC0AA1FBB1F3F
:103DB000EE1FFF1FA217B307E407F50720F0A21BB1
:103DC000B30BE40BF50B661F771F881F991F1A941E
:103DD00069F760957095809590959B01AC01BD0148
:103DE000CF010895A29FB001B39FC001A39F700DA2
:103DF000811D1124911DB29F700D811D1124911DF3
:103E000008950E94461E88F09F5798F0B92F992771
:103E1000B751B0F0E1F0660F771F881F991F1AF0B5
:103E2000BA95C9F714C0B13091F00E94601EB1E09C
:103E300008950C94601E672F782F8827B85F39F09B
:103E4000B93FCCF3869577956795B395D9F73EF44E
:103E500090958095709561957F4F8F4F9F4F0895F6
:103E6000DB018F939F930E94861EBF91AF91A29F0B
:103E7000800D911DA39F900DB29F900D1124089568
:103E8000991B79E004C0991F961708F0961B881FAC
:103E90007A95C9F78095089597FB072E16F400943C
:103EA00007D077FD09D00E94661F07FC05D03EF4BD
:103EB000909581959F4F0895709561957F4F0895D6
:103EC000EE0FFF1F0590F491E02D0994AA1BBB1B78
:103ED00051E107C0AA1FBB1FA617B70710F0A61B0A
:103EE000B70B881F991F5A95A9F780959095BC012B
:103EF000CD010895B0E0A0E0E0E8FFE10C949B1E46
:103F00008C01009751F4CB010E94121B8C01C80157
:103F1000CDB7DEB7E0E10C94B71EFC01E60FF71F4A
:103F20009C0122503109E217F30708F49DC0D90122
:103F3000CD91DC911197C617D70798F0C530D10500
:103F400030F3CE0104978617970708F3C61BD70BEB
:103F50002297C193D1936D937C93CF010E94AE1BA6
:103F6000D6CF5B01AC1ABD0A4C018C0E9D1EA091F0
:103F70000604B0910704512C412CF12CE12C109730
:103F800031F580910404909105048815990509F094
:103F90005CC04616570608F058C080910101909108
:103FA0000201009741F48DB79EB7409105015091F1
:103FB0000601841B950BE817F90708F055C0F0932C
:103FC0000504E0930404F90171836083A0CF8D910F
:103FD0009C91119712966C90129713967C90139760
:103FE000A815B90559F56C0142E0C40ED11CCA14DC
:103FF000DB0420F1AC014A195B09DA01129615972E
:1040000080F06282738251834083D9016D937C93E7
:10401000E114F10471F0D7011396FC93EE9312971B
:1040200076CF22968C0F9D1FF90191838083F30137
:10403000EFCFF0930704E093060469CF48165906C2
:1040400008F42C017D01D3019ACFCB010E94121BF1
:104050007C01009749F0AE01B8010E943720C801E9
:104060000E94AE1B870153CF10E000E050CFFB0150
:10407000DC0102C001900D9241505040D8F70895E4
:10408000FB01DC0101900D920020E1F7089512E0A0
:10409000CBE5D2E004C0FE010E94601F2196CC3522
:0840A000D107C9F7F894FFCF26
:1040A8000100000804800001000000010000000079
:1040B8000000002C08EA045D0A5C0A0400060008F7
:1040C800000A000C00140064000D0A004C4F414423
:0C40D8004552002F0064002000213A0037
:00000001FF
